:100000000C942E000C944B000C944B000C944B0061
:100010000C944B000C944B000C944B000C944B0034
:100020000C944B000C944B000C944B000C944B0024
:100030000C944B000C944B000C944B000C944B0014
:100040000C944B000C944B000C944B000C944B0004
:100050000C944B000C944B000C944B0011241FBECD
:10006000CFEFD4E0DEBFCDBF11E0A0E0B1E0EEE81D
:10007000F3E002C005900D92A639B107D9F711E05F
:10008000A6E9B1E001C01D92AE39B107E1F70E94C7
:10009000B2010C94C5010C94000087E084B98DE591
:1000A0008CBD08958EBD0DB407FEFDCF8EB50895AD
:1000B00028988EBD0DB407FEFDCF8EB56EBD0DB474
:1000C00007FEFDCF8EB54EBD0DB407FEFDCF8EB53C
:1000D0002EBD0DB407FEFDCF8EB5289A089520E001
:1000E00030E0FB01E20FF31F40814EBD0DB407FE6F
:1000F000FDCF4EB5FC01E20FF31F40832F5F3F4F52
:100100002430310571F7089528980E946F00289ACD
:100110000895DF93CF9300D000D0CDB7DEB74983E9
:100120005A836B837C8380939A01FE01319682818E
:1001300080939B01818180939C01898180939D01A3
:10014000289886E991E06AE971E00E946F00289A98
:100150000F900F900F900F90CF91DF9108958093A3
:100160009A0110929B0170939C0160939D012898C5
:1001700086E991E06AE971E00E946F00289A08958B
:1001800080939A0160939B0140939C0120939D0171
:10019000289886E991E06AE971E00E946F00289A48
:1001A0000895CF92DF92EF92FF920F931F93DF9308
:1001B000CF93CDB7DEB728970FB6F894DEBF0FBE4A
:1001C000CDBF7B01182F1295110F107E812F8961F1
:1001D0008D83CE010196BE016B5F7F4F0E9484002C
:1001E000C7018070987F009711F08FEF4EC06701B4
:1001F0008B81082F0F700C5F82958F70081B8FEF1B
:10020000E816F104E1F0DCF0101684F0812F8C6028
:1002100060E04F2D2E2D0E94C000812F826160E092
:100220004FE720E00E94C00081E02FC0D594C79422
:1002300001508FEFC816D10409F034F717C00D3004
:1002400084F0812F8C6060E04F2D2E2D0E94C00025
:10025000812F826160E040E02DE00E94C00082E0DA
:1002600014C0CC0CDD1C0F5FC7FEE9CF812F8C6062
:1002700060E04F2D2E2D0E94C000812F826160E032
:100280004C2D202F0E94C00080E028960FB6F894D5
:10029000DEBF0FBECDBFCF91DF911F910F91FF90B9
:1002A000EF90DF90CF9008950F931F93CF93DF933C
:1002B00000E011E0C0E8D0E08C2F60E0F80141815F
:1002C00020810E94580022960E5F1F4FF1E0C0303F
:1002D000DF0791F78EE761E047E020E20E945800D7
:1002E00080E160E040E120E40E94580040918701F5
:1002F0004295407F809188018F70482B88E160E0B3
:1003000026E00E94C00084E060E040E021E00E941E
:100310005800209183014091840186E060E00E94B2
:10032000580020918501409186018CE060E00E9498
:100330005800609185017091860180E00E94D10093
:1003400084E160E04FE020E00E94580080E040E45B
:1003500052E46FE070E00E948900DF91CF911F911D
:100360000F91089587E084B98DE58CBD83EF91E00E
:100370000197F1F700C000000E94540183EF91E063
:0E0380000197F1F700C00000F9CFF894FFCF0D
:10038E0009080100110504030206110D0C0B0A2EBB
:10039E00111111111111111111111111111111113F
:1003AE00111111111111111111111111111111112F
:1003BE00111111111111111111111111111111111F
:1003CE00000605040A090F0E0C1311101715141A46
:1003DE0019181E1D1C2221202725242B2A29282FDF
:1003EE002E2D2C3332313037363535343B3A3A39BF
:1003FE003938383F3F3E3E3D3D3D3D3D3C3C3C3C2B
:10040E000001028E0601000203E803F4010203E874
:06041E0003F401020300DB
:00000001FF
